:100000000222CF02208C554E4B4E4F574E004335A7
:100010003152443200433531454432004C5043396B
:0A00200032320002249AC2002222AC
:10002B0002268002033FE86480F8E933E83360116D
:10003B000460F0ED33EC337009E8FCE9FDEAFEEB0C
:10004B00FF220460DED3EB9FEA9EE99DE8C2E78CBA
:10005B00F0C2F795F0400CE8CCF8E9CDF9EACEFA0E
:10006B00EBCFFB12030A85D0F05804700320D5B3F5
:10007B00E80470075002B2D502034992D5EC046034
:10008B00F7E4CCC0E0C398F8603B94186008400DCF
:10009B00D0E0FB020321E4FBFAC9FC8028E830E442
:1000AB0006E4C9FBE4CAFCE830E305E4C9CACBFCAF
:1000BB00E854076010F8C3E913F9EA13FAEB13FBE2
:1000CB00EC13FCD8F130F52FC3E49CFCEF9BFFEE57
:1000DB009AFEED99FDD0E0FBEF4E4D4C701222DBFA
:1000EB0003020346EC2CFCEF33FFEE33FEED33FD46
:1000FB00ED30E7EB020321EF2BFFEE3AFEED39FD7E
:10010B00D0E0FB50130BBB0003020349ED13FDEED4
:10011B0013FEEF13FFEC13FC020321EC4D6011E80F
:10012B00497017ED33EC3304600DE4FCFFFEFD2248
:10013B00E933E8330470F802033F12030A580460F2
:10014B0009E4CC24815006285009020349284003B6
:10015B00020346C0E0EB4A7044B98006D0E0FB02D4
:10016B000335EF4E701CBD8008EBFFEAFEE9FD8006
:10017B00EBE98DF0A4FEE5F002020FE9CDF9EAFE02
:10018B00EBFFEF89F0A4FCE5F0CE89F0A42EFFE4A1
:10019B0035F0CD89F0A42DFEE435F08067EF4E707D
:1001AB0005BD80D780C3EF8BF0A4ACF0EE8BF0A431
:1001BB002CFCE435F0F8EF8AF0A42CE5F038FCE4E5
:1001CB0033CB8DF0A42CFCE5F03BF8EE8AF0A42C9D
:1001DB00FCE5F038F8E433CF89F0A42CFCE5F038DB
:1001EB00CF3400CE89F0A42FFFE5F03EFEE433C9F7
:1001FB008DF0A42EFEE5F039CD8AF0A42FFFE5F0AB
:10020B003EFEE43DFD33D0E0FB50070BBB000F027D
:10021B000349EC2CFCEF33FFEE33FEED33FD020311
:10022B0021020349EC5D046005E8590470030203E5
:10023B003F12030A580460F6EC4860F2EC7004FDC0
:10024B00FEFF22C860DB2481C85009C398600250AE
:10025B00060203469850CAF582E9294B4A7005AB52
:10026B008202033575F0007C1A7880C3EF9BEE9AFF
:10027B00ED99400DC3EF9BFFEE9AFEED99FDE84221
:10028B00F0DC23ACF0D0E0FFD0E0FED0E0FDAB82A1
:10029B0020E7101BEB60BAEC2CFCEF33FFEE33FEC8
:1002AB00ED33FD020321E803F830E705C0F075F0EC
:1002BB0000EF2FFFEE33FEED33FD40B830E7C28089
:1002CB00AA75F020800E75F010800575F0087D0082
:1002DB007E007F003392D530D5031207B1EC33404B
:1002EB0010EF33FFEE33FEED33FDEC33FCD5F0EDC9
:1002FB0022E5F0247EA2D513CC92E7CDCEFF22E9E6
:10030B00D2E7C933E833F892D5EDD2E7CD33EC33EE
:10031B00FC5002B2D522EC30E7100FBF000C0EBE22
:10032B0000080DBD00040BEB6014A2D5EB13FCED24
:10033B0092E7FD2274FFFCFDFEFF22E480F8A2D5BC
:10034B0074FF13FC7D80E480EFF920E72824F9503B
:10035B00037907E4F42402FB18DBFDE624FB5014BD
:10036B00E9600DE4F618E604F6B40A08E4F6D9F5EC
:10037B007401F60A22C2D522ED33EC3392D5FA6022
:10038B002AB4FF33EDC2E77BFF60067A0379A8E45A
:10039B00227A0379B120D5047A0379AC224E614ECF
:1003AB00002B494E46002D494E4600E47A08F608CC
:1003BB00DAFC7B00740722E8C0E0ECC0E0EDC0E0A3
:1003CB00EEC0E0EFC0E0EA75F010A4CAABF075F038
:1003DB004DA42BFBE435F0FCEA2410FAEB34C5FBFF
:1003EB00EC34D9FCEDC2E7FF75F056A4F42411C52B
:1003FB00F0F434C58FF0A42AE5F03BE43CF620E79B
:10040B00141204B6D0E0FFD0E0FED0E0FDD0E0FC4B
:10041B0012022F8014F4041204B6D0E0FFD0E0FED9
:10042B00D0E0FDD0E0FC120126D0E0F8E6FAEDD2E8
:10043B00E7CD33EC332482FBE4C3CF33CFCE33CEC3
:10044B00CD33CD33DBF37B0775F00A846004F608FC
:10045B001B0AE5F0F6088FF0740AA4FFACF08EF0DF
:10046B00740AA42CFEACF050010C8DF0740AA42C71
:10047B00FDE435F0F608DBDE7407223F8000004117
:10048B0020000042C80000447A0000461C40004790
:10049B00C35000497424004B1896804CBEBC205AA4
:1004AB000E1BCA6753C21C749DC5AEFB6006540776
:1004BB00601C23231204E4EB543860091204D0129D
:1004CB0004DF120126ECF8EDF9EEFAEFCB22EB127A
:1004DB0004DF80F1543803241C900486FE93FC0E39
:1004EB00EE93FD0EEE930ECE93FF22E709F608DF97
:1004FB00FA8046E709F208DFFA803E88828C83E7B0
:10050B0009F0A3DFFA8032E309F608DFFA8078E31B
:10051B0009F208DFFA807088828C83E309F0A3DF8D
:10052B00FA806489828A83E0A3F608DFFA8058890F
:10053B00828A83E0A3F208DFFA804C80D280FA80B3
:10054B00C680D4806980F28033801080A680EA80D8
:10055B009A80A880DA80E280CA803389828A83EC11
:10056B00FAE493A3C8C582C8CCC583CCF0A3C8C595
:10057B0082C8CCC583CCDFE9DEE7800D89828A8314
:10058B00E493A3F608DFF9ECFAA9F0EDFB228982DC
:10059B008A83ECFAE0A3C8C582C8CCC583CCF0A390
:1005AB00C8C582C8CCC583CCDFEADEE880DB898294
:1005BB008A83E493A3F208DFF980CC88F0EF600123
:1005CB000E4E60C388F0ED2402B4040050B9F582DE
:1005DB00EB2402B4040050AF23234582239005463D
:1005EB0073BB010689828A83E0225002E722BBFE9D
:1005FB0002E32289828A83E49322BB010CE58229E0
:10060B00F582E5833AF583E0225006E92582F8E688
:10061B0022BBFE06E92582F8E222E58229F582E576
:10062B00833AF583E49322BB010689828A83F02205
:10063B005002F722BBFE01F322F8BB010DE5822924
:10064B00F582E5833AF583E8F0225006E92582C866
:10065B00F622BBFE05E92582C8F222EF8DF0A4A895
:10066B00F0CF8CF0A428CE8DF0A42EFE22BC000B74
:10067B00BE0029EF8DF084FFADF022E4CCF875F0CD
:10068B0008EF2FFFEE33FEEC33FCEE9DEC984005AC
:10069B00FCEE9DFE0FD5F0E9E4CEFD22EDF8F5F072
:1006AB00EE8420D21CFEADF075F008EF2FFFED337A
:1006BB00FD4007985006D5F0F222C398FD0FD5F0F8
:1006CB00EA22C5F0F8A3E028F0C5F0F8E582158220
:1006DB0070021583E038F02275F008758200EF2F59
:1006EB00FFEE33FECD33CDCC33CCC58233C5829BED
:1006FB00ED9AEC99E58298400CF582EE9BFEED9A13
:10070B00FDEC99FC0FD5F0D6E4CEFBE4CDFAE4CCAE
:10071B00F9A88222B800C1B90059BA002DEC8BF0B0
:10072B0084CFCECDFCE5F0CBF97818EF2FFFEE336D
:10073B00FEED33FDEC33FCEB33FB10D70399400498
:10074B00EB99FB0FD8E5E4F9FA227818EF2FFFEEBF
:10075B0033FEED33FDEC33FCC933C910D7059BE9F0
:10076B009A4007EC9BFCE99AF90FD8E0E4C9FAE44C
:10077B00CCFB2275F010EF2FFFEE33FEED33FDCCEB
:10078B0033CCC833C810D7079BEC9AE899400AEDD5
:10079B009BFDEC9AFCE899F80FD5F0DAE4CDFBE47D
:1007AB00CCFAE4C8F922C3E49FFFE49EFEE49DFD6E
:1007BB00E49CFC22FAE6FB0808E6F925F0F618E6BD
:1007CB00CA3AF622D083D082F8E493701274019364
:1007DB00700DA3A393F8740193F5828883E473746B
:1007EB0002936860EFA3A3A380DF8A838982E473FB
:1007FB008F238D24EFC454F02441F582E43400F5AB
:10080B0083E0FF20E003020A57E5241207CF096FAC
:10081B000808CD0A08CD0D0844200F582208CD2317
:10082B0008CD2A08442C08442E08442F08443A08C3
:10083B00CD3B08CD40000009C5E523C454F0243C52
:10084B00F582E43400F583E0FEE523C454F0243A4A
:10085B00F582E43400F583E0FDC39E4003020F589C
:10086B00EF20E141E523C454F02437F582E4340052
:10087B00F583E0FBA3E0FAA3E0F98D82758300E436
:10088B00120644E523C454F0243AF582E43400F50F
:10089B0083E004F0E523C454F0243BF582E43400F8
:1008AB00F583E004F0E524B42015E523C454F024CB
:1008BB0041F582E43400F583E04402F0020F580264
:1008CB000A42E523C454F0243CF582E43400F5835A
:1008DB00E0FFE523C454F0243AF582E43400F583B9
:1008EB00E0FEC39F501FE523C454F02437F582E488
:1008FB003400F583E0FBA3E0FAA3E0F98E82758365
:10090B0000E4120644E523C454F0243CF582E4349D
:10091B0000F583E024FFFFE434FFFEE523C454F02D
:10092B002437F582E43400F583E0FBA3E0FAA3E07F
:10093B00F98F828E83E4120644E523C454F02441DC
:10094B00F582E43400F583E054FEF0E523C454F063
:10095B002432F582E43400F583E0FBA3E0FAA3E054
:10096B00F9020CFAE523C454F0243AF582E434007E
:10097B00F583E07003020F58E523C454F0243AF5D5
:10098B0082E43400F583E014F0E523C454F02437FB
:10099B00F582E43400F583E0FBA3E0FAA3E0F9E58C
:1009AB0023C454F0243AF582E43400F583E0F58255
:1009BB00758300E4120644020F58E523C454F02457
:1009CB003CF582E43400F583E0FFE523C454F024C6
:1009DB003AF582E43400F583E0FEC39F5033E52300
:1009EB00C454F02437F582E43400F583E0FBA3E034
:1009FB00FAA3E0F98E82758300E524120644E52301
:100A0B00C454F0243AF582E43400F583E004F0801A
:100A1B0026EF24FFFFE434FFFEE523C454F0243714
:100A2B00F582E43400F583E0FBA3E0FAA3E0F98F51
:100A3B00828E83E4120644E523C454F02441F582EC
:100A4B00E43400F583E054FDF0020F58E523C45461
:100A5B00F02441F582E43400F583E0FF30E234E525
:100A6B0023C454F02441F582E43400F583EF54FBA6
:100A7B00F0E523C454F0243AF582E43400F583E422
:100A8B00F0E523C454F0243FF582E43400F583E40D
:100A9B00F0A3F0AF241228778F24E523C454F0245D
:100AAB0032F582E43400F583E0FBA3E0FAA3E0F92E
:100ABB00E523C454F0243DF582E43400F583E0FED5
:100ACB00A3E0F5828E83A3120605FFE523C454F041
:100ADB00243DF582E43400F583E0FCA3E0FDE5233F
:100AEB00C454F0243FF582E43400F583E0FAA3E02C
:100AFB002DFDEA3CCD2404CD3400CDC39FFFED94F6
:100B0B0000FEE523C454F02432F582E43400F5836F
:100B1B00E0FBA3E0FAA3E0F98F828E83120605F5C2
:100B2B0026B44027E523C454F0243FF582E4340077
:100B3B00F583E0FEA3E0FFE523C454F0243DF582EA
:100B4B00E43400F583EE8FF01206CDE523C454F0A8
:100B5B002432F582E43400F583E0FBA3E0FAA3E052
:100B6B00F9E523C454F0243DF582E43400F583E029
:100B7B00FEA3E0F5828E83A3120605FFE523C45482
:100B8B00F0243DF582E43400F583E0FCA3E0FDE5C1
:100B9B0023C454F0243FF582E43400F583E0FAA338
:100BAB00E02DFDEA3CCD2404CD3400CDC39FFFEDF9
:100BBB009400FEE523C454F02432F582E43400F5AE
:100BCB0083E0FBA3E0FAA3E0F98F828E8312060584
:100BDB00F52665246003020DB1E523C454F0243FD0
:100BEB00F582E43400F583E475F0011206CDE523BC
:100BFB00C454F02432F582E43400F583E0FBA3E027
:100C0B00FAA3E0F9E523C454F0243DF582E4340063
:100C1B00F583E0FEA3E0F5828E83A3120605FFE5C4
:100C2B0023C454F0243DF582E43400F583E0FCA3A7
:100C3B00E0FDE523C454F0243FF582E43400F58352
:100C4B00E0FAA3E02DFDEA3CCD2404CD3400CDC366
:100C5B009FFFED9400FEE523C454F02432F582E4AB
:100C6B003400F583E0FBA3E0FAA3E0F98F828E83D7
:100C7B00120605F52664406003020F58E523C454A1
:100C8B00F0243DF582E43400F583E0FEA3E0F58229
:100C9B008E83A3120605FFE523C454F0243DF58291
:100CAB00E43400F583E0FCA3E0FDE523C454F02419
:100CBB003FF582E43400F583E0FAA3E02DFDEA3C36
:100CCB00CD2403CD3400CDC39FFFED9400FEE5236F
:100CDB00C454F02432F582E43400F583E0FBA3E046
:100CEB00FAA3E0F98F828E83120605643E7045E508
:100CFB0023C454F0243DF582E43400F583E0FEA3D5
:100D0B00E0F5828E83A3A3A3120605F525E523C484
:100D1B0054F0243DF582E43400F583E4F0A3F0E5D0
:100D2B0023C454F02441F582E43400F583E04404F9
:100D3B00F0AF2522E523C454F02437F582E43400C8
:100D4B00F583E0FBA3E0FAA3E0F9E523C454F02418
:100D5B003CF582E43400F583E0FD7C0012278EE540
:100D6B0023C454F0243BF582E43400F583E4F0E52E
:100D7B0023C454F0243AF582E43400F583E4F0E51F
:100D8B0023C454F02441F582E43400F583E044019C
:100D9B00F0E523C454F02441F582E43400F583E0FC
:100DAB0054FDF07F0022E523C454F02432F582E495
:100DBB003400F583E0FBA3E0FAA3E0F9E523C45488
:100DCB00F0243DF582E43400F583E0FEA3E0F582E8
:100DDB008E83A3A3120605FF7003020F34E523C411
:100DEB0054F0243DF582E43400F583E48FF01206D1
:100DFB00CDE523C454F02432F582E43400F583E0CE
:100E0B00FBA3E0FAA3E0F9E523C454F0243DF582FB
:100E1B00E43400F583E0FEA3E0F5828E83A3120693
:100E2B0005FFFDE523C454F0243FF582E43400F5BF
:100E3B0083E0FAA3E0FBC39DEA94005003020DB1DB
:100E4B007E008E278F28D3EB9528EA95274027E540
:100E5B0023C454F0243FF582E43400F583E4F0A37B
:100E6B00F0E523C454F0243DF582E43400F583E42B
:100E7B00F0A3F0020A578E278F28E523C454F024E1
:100E8B003FF582E43400F583E0FEA3E065287003B0
:100E9B00EE65276003020F58E523C454F02432F5A6
:100EAB0082E43400F583E0FBA3E0FAA3E0F9E52349
:100EBB00C454F0243DF582E43400F583E0FEA3E056
:100ECB00F5828E83A3120605FFE523C454F0243D5F
:100EDB00F582E43400F583E0FCA3E0FDE523C45484
:100EEB00F0243FF582E43400F583E0FAA3E02DFD16
:100EFB00EA3CCD2404CD3400CDC39FFFED9400FE1E
:100F0B00E523C454F02432F582E43400F583E0FB8E
:100F1B00A3E0FAA3E0F98F828E83120605F526650E
:100F2B00246003020DB1020BE4E523C454F0243F0B
:100F3B00F582E43400F583E4F0A3F0E523C454F028
:100F4B00243DF582E43400F583E4F0A3F07F002226
:100F5B00E550243CF8E60550227839300702783CFE
:100F6B00E475F0011207BF0205EC2000EB7F2ED2D7
:100F7B00008018EF540F2490D43440D4FF30040B6E
:100F8B00EF24BFB41A0050032461FFE55160021532
:100F9B00510554E5547002055330070D7839E4754B
:100FAB00F0011207BFEF0206320228287403D207A2
:100FBB008003E4C207F5508B398A3A893BE4F5513B
:100FCB00F553F554E55160077F20120F9680F575A8
:100FDB0052FFC201C200C202C203C205C206C2084E
:100FEB00120F64FF700D3007057F00120FA7AF546F
:100FFB00AE5322B4255FC2D5C204120F64FF24D0B6
:10100B00B40A00501A75F00A785130D50508B6FFAE
:10101B000106C6A426F620D5047002D20380D9247B
:10102B00CFB41A00EF5004C2E5D204021294D201DD
:10103B0080C6D20080C0D20280BCD2D580BAD20585
:10104B0080B47F20120F962002077401B551004027
:10105B00F1120F5BFF120F96020FCFD208D2068050
:10106B0095120F5BFB120F5BFA120F5BF94A4B7079
:10107B0006798B7A137BFF20022EE551602A7E00C6
:10108B008E8275830012060560060EEE655270F0B7
:10109B00C2D5EBC0E0EAC0E0E9C0E0EE1212F4D03A
:1010AB00E0F9D0E0FAD0E0FB1205ECFF60AAEBC050
:1010BB00E0EAC0E0E9C0E0120F96D0E02401F9D0DD
:1010CB00E03400FAD0E0FBE5520460DCD552D98065
:1010DB0087D20280A21212D760F7E5527001041278
:1010EB000354A952600DE552600914F55212137E98
:1010FB00EF60F3EA30E702F404C3995077EAF42582
:10110B00520430E701E404F552800D1212D760C18E
:10111B00EA05522552120354EA784FF630E701E400
:10112B00255204D55204200501141212F4E4C0E038
:10113B0012137E784FE6601320E70714F6120F7E2A
:10114B00802204F6D0E014C0E07F00120F7EE5523F
:10115B006007120F751552800B300503120F75D0F7
:10116B00E0020FCFD0E00480C51212D760A0E55289
:10117B0004120354784FEAF6E5522005026001048D
:10118B0024041212F474FF04C0E012137E120F7EBB
:10119B00E5522005026003120F75D0E0B552E87FCF
:1011AB0045120F88784FE67F2B30E7047F2DF40430
:1011BB00C0E0120F96D0E075F00A84C0F0120F7FDA
:1011CB00D0E0120F7F020FCF791080027908C20690
:1011DB00C2088008D2D5790A8004790AC2D5E552B3
:1011EB00047002F552E4FAFDFEFF120F5BFC7B0864
:1011FB00200113120F5BFD7B1030000A120F5BFEF8
:10120B00120F5BFF7B20EC3382D592D55013C3E4D6
:10121B003000069FFFE49EFEE42001039DFDE49C4D
:10122B00FCE4CBF8C201EC700CCFCECDCCE824F8AB
:10123B00F870F38017C3EF33FFEE33FEED33FDECA5
:10124B0033FCEB33FB994002FB0FD8E9EB30010584
:10125B00F8D0E0C448B201C0E00AEC4D4E4F782004
:10126B007B0070C2EAB5520040BCC0E01212F6D04F
:10127B00F0D0E0200104C4C0E0C4B201C0F0120FF2
:10128B007FD0F0D5F0EB020FCF1207CF106C5311BC
:10129B00D358103D4C10394211D74F11DF4411DF99
:1012AB004910524311E55511164611744510E0478C
:1012BB0013AB5010412D10452E10682B10492310E5
:1012CB00662013942A10014800001060E552B4FF09
:1012DB0003755206120F5BFC120F5BFD120F5BFEC8
:1012EB00120F5BFF7848020383790AA2D5200314FF
:1012FB00300509B910020404B9080104A2D520066F
:10130B00025001042002689202B551005034C0E033
:10131B007F203003197F30A20272067205500F1224
:10132B00134DC202C206C205C2087F30800F3005C2
:10133B0003E9C0E0120F96300503D0E0F9D0E0B519
:10134B0051CC3005177F30B9100C120F967F5830E7
:10135B0004077F788003B90803120F963002057FCC
:10136B002D020F967F202008F87F2B2006F3229268
:10137B000280CF7F00B4070050052448F8E6FF2217
:10138B00286E756C6C2900D201120F5B3001F8C20C
:10139B0001785130D50108F60210012D5043495800
:1013AB00120F5B2403B405004001E49013A69312C3
:1013BB000F87743A120F87D2037551040211D30DA4
:1013CB000A43616C6C20495350207265636F7665DC
:1013DB0072792E2E2E005245540D0A0A000D0A4327
:1013EB00616C6C204953502E2E2E0050302E2569E7
:1013FB00203D3D2025690D0A0A0050303A20256911
:10140B000D0A0A0050312E2569203D3D2025690D1E
:10141B000A0A0050313A2025690D0A0A00476F6904
:10142B006E6720696E746F20696E66696E6974658C
:10143B00206C6F6F702C2070726573732045534353
:10144B0020746F20627265616B206974206F7574F4
:10145B002E2E2E000D0A425245414B0D0A0A000D4D
:10146B000A54656D7065726174757265206C6F6F6F
:10147B00702025732E2E2E0D0A0A00737461727460
:10148B0065640073746F7070656400496E747243A9
:10149B00616C6C3A2025692C200054483A20257544
:1014AB002C2000544C3A2025752C200054656D706F
:1014BB003A2025660D0A000D0A2D2D2D2D2D2D2DD3
:1014CB002D2D2D2D2D2D2D2D2D2D2D2D2D2D2D2D41
:1014DB002D2D2D2D2D2D2D2D2D2D2D2D2D2D2D2D31
:1014EB000D0A000D0A5265616C74696D65205469B3
:1014FB006D657248206D696E733A20002025692056
:10150B00000D0A5265616C74696D652054696D65D7
:10151B007248206D6178733A20000D0A5265616C38
:10152B0074696D652054696D65724C206D696E73BD
:10153B003A20000D0A5265616C74696D652054691F
:10154B006D65724C206D6178733A20002D2D2D2D19
:10155B002D2D2D2D2D2D2D2D2D2D2D2D2D2D2D2DB0
:10156B002D2D2D2D2D2D2D2D2D2D2D2D2D2D2D2DA0
:10157B002D2D2D0D0A0025752C2025750D0A000D1E
:10158B000A54656D7065726174757265206D656165
:10159B0073757265206572726F72210D0A0A0054A1
:1015AB006865726D6F737461742025732E25732CAF
:1015BB002063757272656E74204D43553A20257306
:1015CB002C20646174653A2025730D0A747970655B
:1015DB00203F20666F722068656C700D0A0A00311F
:1015EB002E3031610030393034313100417072208E
:1015FB003136203230303900434D44205441424C77
:10160B0045204552524F52210D0A004556454E5426
:10161B00204F564552464C4F57210D0A00400005AE
:10162B00033F40000801424F4F5440000C0243411E
:10163B004C4C204953504000080348454C50400047
:10164B000906494C4F4F50400008074C4F4F504034
:10165B000006045030400105053140000A08545380
:10166B00454E53454000008F25E4F526F527EFC482
:10167B0054F02432F582E43400F583E0FBA3E0FA66
:10168B00A3E0F9E5272403FFE435268F82F58312C7
:10169B000605753C00F53D753E00753F007540280D
:1016AB007BFF7A27790D120FBDE525C454F0243248
:1016BB00F582E43400F583E0FBA3E0FAA3E0F985BF
:1016CB0027828526831206056440600302186DE5A8
:1016DB0025C454F02432F582E43400F583E0FBA3F7
:1016EB00E0FAA3E0F9E5272401FFE435268F82F524
:1016FB0083120605702AE525C454F02432F582E4E2
:10170B003400F583E0FBA3E0FAA3E0F9E52724021C
:10171B00FFE435268F82F583120605700302186DE0
:10172B00E525C454F02435F582E43400F583E0FE5E
:10173B00A3E0C39527EE9526500302186DE4F53709
:10174B00E5272404FFE43526FE7C00EF2537FFEC6C
:10175B003EFEE525C454F02432F582E43400F583D3
:10176B00E0FBA3E0FAA3E0F98F828E83120605F566
:10177B00386440601BE5272401FFE435268F82F592
:10178B00831206052537FFEC33FEEF640E4E702EE9
:10179B00E525C454F02432F582E43400F583E0FBF4
:1017AB00A3E0FAA3E0F9E5272401FFE435268F82B5
:1017BB00F58312060525372428F8E4F68037E5254E
:1017CB00C454F02432F582E43400F583E0FBA3E04B
:1017DB00FAA3E0F9E5272401FFE435268F82F58390
:1017EB0012060525372428F8A6380537E537640F88
:1017FB00600302174BE525C454F02432F582E43420
:10180B0000F583E0FBA3E0FAA3E0F9E5272403FF4F
:10181B00E435268F82F583120605753C00F53D7580
:10182B003E00753F007540287BFF7A27792D120FFC
:10183B00BDE525C454F02432F582E43400F583E091
:10184B00FBA3E0FAA3E0F9E5272402FFE435268F9A
:10185B0082F5831206052527F527E43526F52602A2
:10186B0016B422C0A8C0A8C2AF12FFF0D0A822C0E5
:10187B00A8C2AFC0E0C083C08243A220ED89828A98
:10188B00837812790212FFF0AFE0D082D083D0E0E0
:10189B00D0A822C0A8C2AFC0E0C083C08243A220A0
:1018AB007812790389828A8312FFF0AFE0D082D05D
:1018BB0083D0E0D0A822C0A8C2AFC083C08243A20D
:1018CB0020781279018F8375820012FFF0D082D0BD
:1018DB0083D0A822C0A8C2AFC0E0C083C08243A2FD
:1018EB00207812790090000012FFF0AFE0D082D088
:1018FB0083D0E0D0A822C0A8C2AFC0E0C083C08212
:10190B0043A2207812790775830075820212FFF0CB
:10191B00AFE0D082D083D0E0D0A822C0A8C2AFC0A5
:10192B00E0C083C08243A2207812790475830075CE
:10193B00820012FFF0D082D083D0E0D0A822C0A8C2
:10194B00C2AFC0E0C083C08243A220781279067573
:10195B0083007582018FE012FFF0AFE0D082D0835D
:10196B00D0E0D0A822C0A8C2AFC0E0C083C08243E1
:10197B00A2207812790775830075820112FFF0AFF0
:10198B00E0D082D083D0E0D0A822C0A8C2AFC0E004
:10199B00C083C08243A220781279067583007582BA
:1019AB00008FE012FFF0AFE0D082D083D0E0D0A860
:1019BB0022C0A8C2AFC0E0C083C08243A22078126D
:1019CB00790775830075820012FFF0AFE0D082D0EB
:1019DB0083D0E0D0A822C0A8C2AFC0E0C083C08231
:1019EB0043A220781279057583008F8212FFF0D005
:1019FB0082D083D0E0D0A822C0A8C2AFC0E0C08301
:101A0B00C08243A22078127900758300758201127F
:101A1B00FFF0AFE0D082D083D0E0D0A822C0A8C224
:101A2B00AFC0E0C083C08243A220781279007583D7
:101A3B000075820212FFF0AFE0D082D083D0E0D0ED
:101A4B00A822EF14B408004003021BC9901A657555
:101A5B00F003A4C58325F0C58373021A82021A9082
:101A6B00021A7D021AA5021B17021B87021BC90251
:101A7B001B9FE4FF0216727BFF7A1379CA120FBD0C
:101A8B00120026800C7BFF7A1379E8120FBD122906
:101A9B003D7BFF7A1379E1021B9CE4FF1228ADEF2B
:101AAB00605AE4FF1228ADD3EF64809481401E7B13
:101ABB0001E4FDFF1221668F237B017D01E4FF1200
:101ACB0021668F24AB24AD23E4FF1224E07B01E4D9
:101ADB00FDFF122166C007C0067B01E4FDFF12214A
:101AEB0066AD07E4FF1225A4E433753E00F53FD045
:101AFB003CD03D7BFF7A1379F6021B9C7BFF7A145B
:101B0B007905AF80753C008F3D021B9CE4FF1228CA
:101B1B00ADEF6059E4FF1228ADD3EF6480948140A0
:101B2B001E7B01E4FDFF1221668F237B017D01E407
:101B3B00FF1221668F24AB24AD237F011224E07B9F
:101B4B0001E4FDFF122166C007C0067B01E4FDFF27
:101B5B00122166AD077F011225A4E433753E00F513
:101B6B003FD03CD03D7BFF7A14790F80247BFF7AEA
:101B7B0014791EAF90753C008F3D80157BFF7A1456
:101B8B007928120FBD122739300FFA7BFF7A14799F
:101B9B005F020FBDB2117BFF3011067A147986807C
:101BAB00047A14798E8B3C8A3D893E7BFF7A1479BB
:101BBB006A120FBD3011077D06E4FF12264E228FED
:101BCB00238C248D25E52324F97003021D0B14703F
:101BDB0003021D1824026003021D327BFF7A147965
:101BEB0096753C0085633D120FBD7BFF7A1479A57A
:101BFB00855E3C855F3D120FBD7BFF7A1479AE8508
:101C0B00603C85613D120FBD7BFF7A1479B7855C13
:101C1B003F855B3E855A3D85593C120FBD7BFF7A54
:101C2B001479C2120FBD7BFF7A1479EE120FBD75BA
:101C3B0026027BFF7A157907E52625E024D9F8E6FD
:101C4B00F53C08E6F53D120FBDD526E67BFF7A1570
:101C5B00790C120FBD7526027BFF7A157907E526E5
:101C6B0025E024DDF8E6F53C08E6F53D120FBDD581
:101C7B0026E67BFF7A157925120FBD7526027BFFB1
:101C8B007A157907E52625E024E1F8E6F53C08E628
:101C9B00F53D120FBDD526E67BFF7A15793E120F67
:101CAB00BD7526027BFF7A157907E52625E024E52D
:101CBB00F8E6F53C08E6F53D120FBDD526E67BFFB1
:101CCB007A157957120FBDE4F526E526C3955550C5
:101CDB00297BFF7A157981E52625E02475F8E6F551
:101CEB003C08E6F53DE52625E024A7F8E6F53E0899
:101CFB00E6F53F120FBD052680D030112AD21222F5
:101D0B00C211C2127BFF7A15798A020FBD122926E6
:101D1B00752A00752B00752C237B007A0079231212
:101D2B002525E4FF1228DD227872E6602A08E654A6
:101D3B0007F6E6FE25E02442F582E43400F583E065
:101D4B00FFEE25E02443F582E43400F583E0FD1239
:101D5B0023727873061816200D03021E89C20D7F9D
:101D6B0002EF25E024D9F8E6FC08E6FD4C6014C32D
:101D7B00ED94FFEC94FF500BC3E55F9DF55FE55EC3
:101D8B009CF55EEF25E024DDF8E6FC08E6FD4C60F3
:101D9B001BC3ED94FFEC94FF5012EF25E024DAF80F
:101DAB00C3E55F96F55FE55E1896F55EEF25E024DB
:101DBB00E1F8E6FC08E6FD4C6014C3ED94FFEC94EF
:101DCB00FF500BC3E5619DF561E5609CF560EF2568
:101DDB00E024E5F8E6FC08E6FD4C6014C3ED94FF47
:101DEB00EC94FF500BC3E5619DF561E5609CF560DC
:101DFB001FEF6003021D6CAE5EAF5F7C007D1512A2
:101E0B0006788E5E8F5FAE60AF617C007D1512062B
:101E1B00788E608F61AC60AD61E41202D18F5C8E05
:101E2B005B8D5A8C59C004C005C006C007AC5EADB3
:101E3B005FE41202D1A804A905AA06AB07D007D00C
:101E4B0006D005D00412022F8F5C8E5B8D5A8C59F5
:101E5B007B167AC4795478431201268F5C8E5B8D86
:101E6B005A8C597B947A2B798878421200318F5C8B
:101E7B008E5B8D5A8C59E4FDFC7F061225E1228F77
:101E8B0023EFC454F02435F582E43400F583E0FEEF
:101E9B00A3E04E7002C322E523C454F02432F58232
:101EAB00E43400F583E0FBA3E0FAA3E0F9EA494B45
:101EBB007002C322E523C454F02437F582E43400C6
:101ECB00F583E0FBA3E0FAA3E0F9EA494B7002C308
:101EDB0022E523C454F0243CF582E43400F583E07E
:101EEB007002C322E4FFFEE523C454F02432F582D2
:101EFB00E43400F583E0FBA3E0FAA3E0F98F828ED4
:101F0B008312060564406002C322E523C454F02407
:101F1B0032F582E43400F583E0FBA3E0FAA3E0F9A9
:101F2B008F828E83A31206057023E523C454F024FD
:101F3B0032F582E43400F583E0FBA3E0FAA3E0F989
:101F4B008F828E83A3A31206057002D322E523C4CE
:101F5B0054F02435F582E43400F583E0FCA3E0C3B0
:101F6B009FEC9E5002C322E523C454F02432F58229
:101F7B00E43400F583E0FBA3E0FAA3E0F98F828E53
:101F8B0083A3A31206052FFFE43EFE021EF21200EE
:101F9B002912281312291912289B752706E4F52BF1
:101FAB00752A4BF529F528FF7E407D197C011225FA
:101FBB0067122850E4FDFC7F011225E17BFF7A2894
:101FCB0079BD122930122937753CFF753D15753EC9
:101FDB00EA753FFF7540157541F07542FF856A4301
:101FEB00856B447545FF7546157547F77BFF7A156D
:101FFB0079AA120FBD75270075284A752901752A14
:10200B0000752B1E752C147BFF7A167928E4FF12B2
:10201B002222E4FF121E8AB350097BFF7A16790342
:10202B00120FBDC2111227B6300F1378EFE6FF1255
:10203B00282878EFE6FDE4FF1207FB121A4D301447
:10204B000D78EDE6FF78EAE6FD7C00121BCA301333
:10205B000BC2137BFF7A167916120FBD301214E5E3
:10206B00174516700E7D06FF12264E751600751756
:10207B0032C2121223E812273912261C121D33808A
:10208B00A4C0E0C0D075D008C2A8C28C858A588580
:10209B008C57758C00758A00D28CE5656003022124
:1020AB004E300B72E5646061E558255FF55FE557CF
:1020BB00355EF55E15647F02EF146036EF25E02484
:1020CB00D9F8E6FC08E6FDC3E5589DE5579C501F83
:1020DB00EF25E024D8F9D3E79D19E79CEF400625BF
:1020EB00E024D7800425E024D9F8A65708A6581F6A
:1020FB0080C6E555C39432504CE55525E02475F860
:10210B00A65708A6580555803C756502756419C21B
:10211B000B438908802FE5646025E5582561F5613F
:10212B00E5573560F5601564E556C394325016E5F6
:10213B005625E024A7F8A65708A65805568006D2C0
:10214B000D80021565300D0AC28C758C00758A00E6
:10215B008002D2A80563D0D0D0E0328F258D268B9C
:10216B0027E4F52D7428252DF8E4F6052DE52DB47F
:10217B0005F2E4F52DF52EC200AD26AF2512244B4A
:10218B001205ECB42D02D200E52DC39405502FADF2
:10219B0026AF2512244B7E00E9252EF9EE3AFA12D2
:1021AB0005ECF52F6018FF122889EF7004052E80BF
:1021BB00D77428252DF8A62F052D052E80CAE527C7
:1021CB006008C3952D500385272D7B017A00900065
:1021DB0000E52D602F2427F8E624D0FFE434FFFE22
:1021EB00AD03AC02120666EF2582F582EE3583F560
:1021FB00837C007D0AAF03AE02120666AA06AB070C
:10220B00152D80CD30000BC3E49582F582E49583C8
:10221B00F583AE83AF82228B248A258926EFC454A3
:10222B00F0243DF582E43400F583E4F0A3F0EFC431
:10223B0054F0243FF582E43400F583E4F0A3F0EF8F
:10224B00C454F02437F582E43400F583E529F0A378
:10225B00E52AF0A3E52BF0EFC454F0243CF582E41F
:10226B003400F583E52CF0EFC454F02432F582E40E
:10227B003400F583EBF0A3EAF0A3E9F0EFC454F0DC
:10228B002435F582E43400F583E527F0A3E528F047
:10229B00EFC454F02441F582E43400F583E054FD9F
:1022AB00F0EFC454F02441F582E43400F583E0549C
:1022BB00FEF0EFC454F02441F582E43400F583E0E2
:1022CB004404F022438E10538EF7538EFB787FE439
:1022DB00F6D8FD9000007F007E07E4F0A3DFFCDE64
:1022EB00FA7581F202232D021F99E493A3F8E4936C
:1022FB00A34003F68001F208DFF48029E493A3F8EE
:10230B005407240CC8C333C4540F4420C88340045F
:10231B00F456800146F6DFE4800B0102040810201E
:10232B0040809028EDE47E019360BCA3FF543F30C6
:10233B00E509541FFEE493A360010ECF54C025E0C2
:10234B0060A840B8E493A3FAE493A3F8E493A3C87A
:10235B00C582C8CAC583CAF0A3C8C582C8CAC5830B
:10236B00CADFE9DEE780BEAC078C5D8D62C20DE48F
:10237B00F563C200D2017F011227D5C28D5389F7B5
:10238B00756419D20BE4F55EF55FF560F561F555F3
:10239B00F5567F02EF25E024D9F874FFF608F6EF27
:1023AB0025E024DDF8E4F608F6EF25E024E1F874E7
:1023BB00FFF608F6EF25E024E5F8E4F608F6DFD49F
:1023CB00756502C28CE4F58CF58A1227F45003D2A2
:1023DB00A822ECFD7C007F071225E1C32278ECE6F6
:1023EB00605878E9E675F00A84A6F0E675F003A468
:1023FB002400F9740035F0FA7B0178237C007D0012
:10240B007E007F031205C678E9E6FF75F003A4246E
:10241B0000F582E43400F583E4F0EF75F003A424B7
:10242B0001F582E43400F583E4F0A3F00678EC16B2
:10243B00D21408A62378EAA62522301402C214224D
:10244B008F307F01E4FEEE6D6028EE6D6024E53089
:10245B00C454F02437F582E43400F583E0FBA3E0A9
:10246B00FAA3E0F98F8275830012060570010E0F37
:10247B0080D4E530C454F02437F582E43400F5837E
:10248B00E0FBA3E0FAA3E07E002FF9EE3AFA22C0BC
:10249B00E0C0F0C083C082C0D075D008309824C291
:1024AB009878F0E675F00A84E5F0F6E62452F582AA
:1024BB00E43400F583E599F00679F0E778EE667081
:1024CB0002D210309904C299D20ED0D0D082D083D0
:1024DB00D0F0D0E0327401A805088002C333D8FCD9
:1024EB00FEEBA805088002C333D8FCFDEF14601285
:1024FB0014601714601C2403701FEEF455804DF507
:10250B008022EEF455904DF59022EEF455A04DF54A
:10251B00A022EEF455B04DF5B0228B278A288929DD
:10252B00E4FEC200AB2AAA2BA92C8E827583001263
:10253B000605FF6024D200122877AD07AB27AA2827
:10254B00A9298E82758300120605FF122877EF6D7D
:10255B006004C20080030E80CBA200228F268E2542
:10256B008D248C23AF27AB07E4FAF9F8AF261207BB
:10257B001FAB2BAA2AA929A82812071F7E0A900095
:10258B0052E4F0A3DEFCC20FE478F0F678EEF60826
:10259B00F6C210D20EFE022764E4FEC20004A805A8
:1025AB00088002C333D8FCFDEF14601014601314C1
:1025BB00601624037016E5805DFE8010E5905DFECD
:1025CB00800AE5A05DFE8004E5B05DFEEEC3600110
:1025DB00D39200A2002278ECE6C3940A503018E69E
:1025EB0075F00A84AEF0EEF675F003A42400F582C4
:1025FB00E43400F583EFF0EE75F003A42401F582CB
:10260B00E43400F583ECF0A3EDF006080622D213B8
:10261B0022E5134512702BF512751301FE745C2E17
:10262B00F582E43400F583E0600F745C2EF582E4F0
:10263B003400F583E014F08005AF0612290B0EBEB3
:10264B0003DB227872E6C3940850287874E65407AB
:10265B00FEF625E02442F582E43400F583EFF0EE3C
:10266B0025E02443F582E43400F583EDF00678721F
:10267B0006D322C322C0E0C0D075D0181228CD508B
:10268B0020E4FFEF25E02410F8E6FC08E64C600D93
:10269B00EF25E02410F808E616187001160FBF049A
:1026AB00E2D0D0D0E032E4F5C9F5C8C2CFC2CEC279
:1026BB00CDC2CCC2CBD2CAC2C9C2C875CAFF75CBF8
:1026CB0087F5C8C2CFC2CED2ADD2CA438F0843B7AB
:1026DB002053B8DF22E47874F618F618F6C20AC253
:1026EB000C7F07EF25E02442F582E43400F583E408
:1026FB00F0EF25E02443F582E43400F583E4F0DFCA
:10270B00E2220D0A2069642020636F6D6D616E6497
:10271B000D0A2D2D2D2D2D2D2D2D2D2D2D2D2D0D41
:10272B000A0020252E32693A2025730D0A0078EE17
:10273B00E6FF78F066601FEF75F00A8478EEA6F07E
:10274B00E62452F582E43400F583E008F61806D24D
:10275B000F7F010228DDC20F228E2C8F2DE4F598FE
:10276B00C29FD29EC29DD29CC29BC29AC299C29852
:10277B00758BFB758DFBD28E438920F59B53877F21
:10278B00D2AC228B298A2A892B8C2C8D2DE4FFEF3E
:10279B00C3952DE4952C5012AB29AA2AA92B8F8215
:1027AB00758300E41206440F80E522A295B35019FD
:1027BB007F64E4FEEF60091FA295B350F70E80F41F
:1027CB00EED3945A400312002622A200E43325E0F4
:1027DB0025E0FEA201E43333333354F84E4F540F4C
:1027EB00FFE58954F04FF589227514037515E83010
:1027FB00B208E515451470F7C322E51545146006BC
:10280B00A2B2B350F522C322758F01E4F5A8F5B738
:10281B00F5B3F5B8F5B2C2D3C2D4D2AF22E56F454A
:10282B0070456E6009857082856F830207F97F00A2
:10283B0022751000751164A20EB35006E5114510F8
:10284B0070F5C20E22E478ECF618F678E9F6C213AE
:10285B00C21478EDF678EAF622C289C2A8D288C2F1
:10286B00A9C28CC28D43B70143B80122EFC3946157
:10287B00400BEFD3947A5005EF54DFFF2222EFC3C6
:10288B0094304009EFD3943950037F01227F00220B
:10289B00751200751364E4FEAF061228DD0EBE033D
:1028AB00F722EFC454F0243BF582E43400F583E0C7
:1028BB00FF228F2312283C852399E4FF1228DDAFDA
:1028CB00232230CF06C2CFD2098002C209C2CEA2C8
:1028DB000922745C2FF582E43400F583740AF0024C
:1028EB0028FCC111C11208660006000E0015001C61
:1028FB00007401A807088002C333D8FCF45280226D
:10290B007401A807088002C333D8FC428022122628
:10291B00B17F087810E4F608DFFC2290FFF0E49317
:10292B00C36001D3228B6E8A6F8970221226E0025C
:05293B00286402186E83
:00000001FF
